:020000020000FC
:100000000FE50DBF04E00EBF222744271127332739
:1000100031BB309537BB33270FE708BB00C0A9ECD5
:10002000B1E080E197E230B33095232B0197D9F707
:100030001197B9F700C0E89420FB16F321FB06F3F3
:1000400022FBF6F226FBE6F227FBD6F20E944101E4
:1000500000C0A9ECB1E080E197E230B33095432BCA
:100060000197D9F71197B9F70E94410100C00E948A
:10007000270111FB26F00E9441010C944C000DE772
:1000800008BB0E94340111FDF6CF0FE708BB0E94A8
:10009000340111FDF0CFF3CF0E94270110FB1EF0B9
:1000A0000EE708BB0DC00EE708BB0E94340110FB31
:1000B0003EF00FE708BB0E94340110FB0EF0F3CFB7
:1000C0000EE708BB30B33095303409F0F9CF42FB6E
:1000D0000EF010C00AE708BB1127A9ECB1E084EECE
:1000E00090E030B33095132B0197D9F71197B9F7FA
:1000F0000EE708BB203071F0283071F0203171F02C
:10010000283171F0203231F0283231F0203331F0D3
:10011000283331F00C9492000C94BE000C94D7005C
:100120000C94F00006E708BB1127AFE3B1E080E1D3
:1001300097E230B33095313081F0303881F001975B
:10014000C1F71197A1F70EE708BB0E940D0125FB2F
:1001500016F00C94BC000C9416010C9453000CE3A4
:1001600008BB0E943401103839F00EE308BB0E942E
:100170003401103809F0F3CF0C94000006E708BBF7
:100180001127AFE7B2E080E197E230B3309531302C
:1001900021F3303821F30197C1F71197A1F70EE74A
:1001A00008BB0E940D0125FBB6F20C94BC0006E7CB
:1001B00008BB1127A0E0B5E080E197E230B33095AD
:1001C000313059F2303859F20197C1F71197A1F740
:1001D0000EE708BB0E940D0125FB46F10C94BC0004
:1001E00006E708BB1127A0E0BAE080E197E230B350
:1001F0003095313071F0303871F00197C1F71197B7
:10020000A1F70EE708BB0E940D0125FB7EF00C94C0
:10021000BC000C9453000C94AF000EE608BB0E9487
:1002200034010EE708BB0E94340108951127A0E5B0
:10023000B0E080E197E230B33095313051F330389F
:1002400051F30197C1F7119729F40C94BC001127C1
:10025000A9ECB1E080E197E230B33095132B019720
:10026000D9F71197B9F708951127A9E3B0E080E114
:1002700097E230B33095132B0197D9F71197B9F75F
:100280000895002708BB1127A9E3B0E080E197E2B9
:1002900030B33095132B0197D9F71197B9F70FE7C2
:0402A00008BB0895FA
:00000001FF
